{"contracts/MyFlash.sol":{"FlashLoan":{"abi":[{"inputs":[{"internalType":"address","name":"_addressProvider","type":"address"},{"internalType":"contract ISwapRouter","name":"_swapRouter","type":"address"}],"stateMutability":"nonpayable","type":"constructor"},{"inputs":[],"name":"ADDRESSES_PROVIDER","outputs":[{"internalType":"contract IPoolAddressesProvider","name":"","type":"address"}],"stateMutability":"view","type":"function"},{"inputs":[],"name":"DAI","outputs":[{"internalType":"address","name":"","type":"address"}],"stateMutability":"view","type":"function"},{"inputs":[],"name":"POOL","outputs":[{"internalType":"contract IPool","name":"","type":"address"}],"stateMutability":"view","type":"function"},{"inputs":[],"name":"USDC","outputs":[{"internalType":"address","name":"","type":"address"}],"stateMutability":"view","type":"function"},{"inputs":[],"name":"WETH9","outputs":[{"internalType":"address","name":"","type":"address"}],"stateMutability":"view","type":"function"},{"inputs":[{"internalType":"address","name":"_flashToken","type":"address"},{"internalType":"uint256","name":"flashAmount","type":"uint256"},{"internalType":"address","name":"_target","type":"address"},{"internalType":"address","name":"_targetUser","type":"address"},{"internalType":"uint256","name":"_repayAmount","type":"uint256"}],"name":"executeLiquidation","outputs":[],"stateMutability":"nonpayable","type":"function"},{"inputs":[{"internalType":"address","name":"asset","type":"address"},{"internalType":"uint256","name":"amount","type":"uint256"},{"internalType":"uint256","name":"premium","type":"uint256"},{"internalType":"address","name":"initiator","type":"address"},{"internalType":"bytes","name":"params","type":"bytes"}],"name":"executeOperation","outputs":[{"internalType":"bool","name":"","type":"bool"}],"stateMutability":"nonpayable","type":"function"},{"inputs":[{"internalType":"address","name":"_tokenAddress","type":"address"}],"name":"getBalance","outputs":[{"internalType":"uint256","name":"","type":"uint256"}],"stateMutability":"view","type":"function"},{"inputs":[],"name":"poolFee","outputs":[{"internalType":"uint24","name":"","type":"uint24"}],"stateMutability":"view","type":"function"},{"inputs":[{"internalType":"address","name":"_tokenAddress","type":"address"}],"name":"withdraw","outputs":[],"stateMutability":"nonpayable","type":"function"},{"stateMutability":"payable","type":"receive"}],"evm":{"bytecode":{"linkReferences":{},"object":"60c06040523480156200001157600080fd5b50604051620019e0380380620019e083398181016040528101906200003791906200024a565b818073ffffffffffffffffffffffffffffffffffffffff1660808173ffffffffffffffffffffffffffffffffffffffff16815250508073ffffffffffffffffffffffffffffffffffffffff1663026b1d5f6040518163ffffffff1660e01b8152600401602060405180830381865afa158015620000b8573d6000803e3d6000fd5b505050506040513d601f19601f82011682018060405250810190620000de919062000291565b73ffffffffffffffffffffffffffffffffffffffff1660a08173ffffffffffffffffffffffffffffffffffffffff168152505050336000806101000a81548173ffffffffffffffffffffffffffffffffffffffff021916908373ffffffffffffffffffffffffffffffffffffffff16021790555080600560006101000a81548173ffffffffffffffffffffffffffffffffffffffff021916908373ffffffffffffffffffffffffffffffffffffffff1602179055505050620002c3565b600080fd5b600073ffffffffffffffffffffffffffffffffffffffff82169050919050565b6000620001cd82620001a0565b9050919050565b620001df81620001c0565b8114620001eb57600080fd5b50565b600081519050620001ff81620001d4565b92915050565b60006200021282620001c0565b9050919050565b620002248162000205565b81146200023057600080fd5b50565b600081519050620002448162000219565b92915050565b600080604083850312156200026457620002636200019b565b5b60006200027485828601620001ee565b9250506020620002878582860162000233565b9150509250929050565b600060208284031215620002aa57620002a96200019b565b5b6000620002ba84828501620001ee565b91505092915050565b60805160a0516116e9620002f7600039600081816102cb015281816109070152610cb00152600061027101526116e96000f3fe6080604052600436106100955760003560e01c806351cff8d91161005957806351cff8d9146101885780637535d246146101b157806389a30271146101dc578063e0bab4c414610207578063f8b2cb4f146102325761009c565b80630542975c146100a1578063089fe6aa146100cc5780631b11d0ff146100f75780633b73b6bc146101345780634aa4a4fc1461015d5761009c565b3661009c57005b600080fd5b3480156100ad57600080fd5b506100b661026f565b6040516100c39190610dc9565b60405180910390f35b3480156100d857600080fd5b506100e1610293565b6040516100ee9190610e02565b60405180910390f35b34801561010357600080fd5b5061011e60048036038101906101199190610f00565b610299565b60405161012b9190610fb5565b60405180910390f35b34801561014057600080fd5b5061015b60048036038101906101569190610fd0565b6106c4565b005b34801561016957600080fd5b5061017261075e565b60405161017f919061105a565b60405180910390f35b34801561019457600080fd5b506101af60048036038101906101aa9190611075565b610776565b005b3480156101bd57600080fd5b506101c6610905565b6040516101d391906110c3565b60405180910390f35b3480156101e857600080fd5b506101f1610929565b6040516101fe919061105a565b60405180910390f35b34801561021357600080fd5b5061021c610941565b604051610229919061105a565b60405180910390f35b34801561023e57600080fd5b5061025960048036038101906102549190611075565b610959565b60405161026691906110ed565b60405180910390f35b7f000000000000000000000000000000000000000000000000000000000000000081565b610bb881565b60008060008087896102ab9190611137565b90508973ffffffffffffffffffffffffffffffffffffffff1663095ea7b37f0000000000000000000000000000000000000000000000000000000000000000836040518363ffffffff1660e01b815260040161030892919061118d565b6020604051808303816000875af1158015610327573d6000803e3d6000fd5b505050506040513d601f19601f8201168201806040525081019061034b91906111e2565b506000600260009054906101000a900473ffffffffffffffffffffffffffffffffffffffff1690508073ffffffffffffffffffffffffffffffffffffffff1662a718a9600260009054906101000a900473ffffffffffffffffffffffffffffffffffffffff168d600360009054906101000a900473ffffffffffffffffffffffffffffffffffffffff1660045460006040518663ffffffff1660e01b81526004016103fa95949392919061120f565b600060405180830381600087803b15801561041457600080fd5b505af1158015610428573d6000803e3d6000fd5b50505050600260009054906101000a900473ffffffffffffffffffffffffffffffffffffffff1673ffffffffffffffffffffffffffffffffffffffff1663095ea7b330866040518363ffffffff1660e01b815260040161048992919061118d565b6020604051808303816000875af11580156104a8573d6000803e3d6000fd5b505050506040513d601f19601f820116820180604052508101906104cc91906111e2565b506104fb600260009054906101000a900473ffffffffffffffffffffffffffffffffffffffff168930876109dc565b61054a600260009054906101000a900473ffffffffffffffffffffffffffffffffffffffff16600560009054906101000a900473ffffffffffffffffffffffffffffffffffffffff1686610b34565b6000604051806101000160405280736b175474e89094c44da98b954eedeac495271d0f73ffffffffffffffffffffffffffffffffffffffff16815260200173c02aaa39b223fe8d0a0e5c4f27ead9083c756cc273ffffffffffffffffffffffffffffffffffffffff168152602001610bb862ffffff1681526020013373ffffffffffffffffffffffffffffffffffffffff16815260200142815260200186815260200160008152602001600073ffffffffffffffffffffffffffffffffffffffff168152509050600560009054906101000a900473ffffffffffffffffffffffffffffffffffffffff1673ffffffffffffffffffffffffffffffffffffffff1663414bf389826040518263ffffffff1660e01b815260040161066c9190611340565b6020604051808303816000875af115801561068b573d6000803e3d6000fd5b505050506040513d601f19601f820116820180604052508101906106af9190611371565b93506001955050505050509695505050505050565b82600260006101000a81548173ffffffffffffffffffffffffffffffffffffffff021916908373ffffffffffffffffffffffffffffffffffffffff16021790555081600360006101000a81548173ffffffffffffffffffffffffffffffffffffffff021916908373ffffffffffffffffffffffffffffffffffffffff160217905550806004819055506107578585610c89565b5050505050565b73c02aaa39b223fe8d0a0e5c4f27ead9083c756cc281565b60008054906101000a900473ffffffffffffffffffffffffffffffffffffffff1673ffffffffffffffffffffffffffffffffffffffff163373ffffffffffffffffffffffffffffffffffffffff1614610804576040517f08c379a00000000000000000000000000000000000000000000000000000000081526004016107fb90611421565b60405180910390fd5b60008190508073ffffffffffffffffffffffffffffffffffffffff1663a9059cbb338373ffffffffffffffffffffffffffffffffffffffff166370a08231306040518263ffffffff1660e01b815260040161085f919061105a565b602060405180830381865afa15801561087c573d6000803e3d6000fd5b505050506040513d601f19601f820116820180604052508101906108a09190611371565b6040518363ffffffff1660e01b81526004016108bd92919061118d565b6020604051808303816000875af11580156108dc573d6000803e3d6000fd5b505050506040513d601f19601f8201168201806040525081019061090091906111e2565b505050565b7f000000000000000000000000000000000000000000000000000000000000000081565b73a0b86991c6218b36c1d19d4a2e9eb0ce3606eb4881565b736b175474e89094c44da98b954eedeac495271d0f81565b60008173ffffffffffffffffffffffffffffffffffffffff166370a08231306040518263ffffffff1660e01b8152600401610994919061105a565b602060405180830381865afa1580156109b1573d6000803e3d6000fd5b505050506040513d601f19601f820116820180604052508101906109d59190611371565b9050919050565b6000808573ffffffffffffffffffffffffffffffffffffffff166323b872dd60e01b868686604051602401610a1393929190611441565b604051602081830303815290604052907bffffffffffffffffffffffffffffffffffffffffffffffffffffffff19166020820180517bffffffffffffffffffffffffffffffffffffffffffffffffffffffff8381831617835250505050604051610a7d91906114f2565b6000604051808303816000865af19150503d8060008114610aba576040519150601f19603f3d011682016040523d82523d6000602084013e610abf565b606091505b5091509150818015610aed5750600081511480610aec575080806020019051810190610aeb91906111e2565b5b5b610b2c576040517f08c379a0000000000000000000000000000000000000000000000000000000008152600401610b2390611555565b60405180910390fd5b505050505050565b6000808473ffffffffffffffffffffffffffffffffffffffff1663095ea7b360e01b8585604051602401610b6992919061118d565b604051602081830303815290604052907bffffffffffffffffffffffffffffffffffffffffffffffffffffffff19166020820180517bffffffffffffffffffffffffffffffffffffffffffffffffffffffff8381831617835250505050604051610bd391906114f2565b6000604051808303816000865af19150503d8060008114610c10576040519150601f19603f3d011682016040523d82523d6000602084013e610c15565b606091505b5091509150818015610c435750600081511480610c42575080806020019051810190610c4191906111e2565b5b5b610c82576040517f08c379a0000000000000000000000000000000000000000000000000000000008152600401610c79906115c1565b60405180910390fd5b5050505050565b600030905060008390506000839050600060405180602001604052806000815250905060007f000000000000000000000000000000000000000000000000000000000000000073ffffffffffffffffffffffffffffffffffffffff166342b0b77c86868686866040518663ffffffff1660e01b8152600401610d0f959493929190611659565b600060405180830381600087803b158015610d2957600080fd5b505af1158015610d3d573d6000803e3d6000fd5b5050505050505050505050565b600073ffffffffffffffffffffffffffffffffffffffff82169050919050565b6000819050919050565b6000610d8f610d8a610d8584610d4a565b610d6a565b610d4a565b9050919050565b6000610da182610d74565b9050919050565b6000610db382610d96565b9050919050565b610dc381610da8565b82525050565b6000602082019050610dde6000830184610dba565b92915050565b600062ffffff82169050919050565b610dfc81610de4565b82525050565b6000602082019050610e176000830184610df3565b92915050565b600080fd5b600080fd5b6000610e3282610d4a565b9050919050565b610e4281610e27565b8114610e4d57600080fd5b50565b600081359050610e5f81610e39565b92915050565b6000819050919050565b610e7881610e65565b8114610e8357600080fd5b50565b600081359050610e9581610e6f565b92915050565b600080fd5b600080fd5b600080fd5b60008083601f840112610ec057610ebf610e9b565b5b8235905067ffffffffffffffff811115610edd57610edc610ea0565b5b602083019150836001820283011115610ef957610ef8610ea5565b5b9250929050565b60008060008060008060a08789031215610f1d57610f1c610e1d565b5b6000610f2b89828a01610e50565b9650506020610f3c89828a01610e86565b9550506040610f4d89828a01610e86565b9450506060610f5e89828a01610e50565b935050608087013567ffffffffffffffff811115610f7f57610f7e610e22565b5b610f8b89828a01610eaa565b92509250509295509295509295565b60008115159050919050565b610faf81610f9a565b82525050565b6000602082019050610fca6000830184610fa6565b92915050565b600080600080600060a08688031215610fec57610feb610e1d565b5b6000610ffa88828901610e50565b955050602061100b88828901610e86565b945050604061101c88828901610e50565b935050606061102d88828901610e50565b925050608061103e88828901610e86565b9150509295509295909350565b61105481610e27565b82525050565b600060208201905061106f600083018461104b565b92915050565b60006020828403121561108b5761108a610e1d565b5b600061109984828501610e50565b91505092915050565b60006110ad82610d96565b9050919050565b6110bd816110a2565b82525050565b60006020820190506110d860008301846110b4565b92915050565b6110e781610e65565b82525050565b600060208201905061110260008301846110de565b92915050565b7f4e487b7100000000000000000000000000000000000000000000000000000000600052601160045260246000fd5b600061114282610e65565b915061114d83610e65565b9250827fffffffffffffffffffffffffffffffffffffffffffffffffffffffffffffffff0382111561118257611181611108565b5b828201905092915050565b60006040820190506111a2600083018561104b565b6111af60208301846110de565b9392505050565b6111bf81610f9a565b81146111ca57600080fd5b50565b6000815190506111dc816111b6565b92915050565b6000602082840312156111f8576111f7610e1d565b5b6000611206848285016111cd565b91505092915050565b600060a082019050611224600083018861104b565b611231602083018761104b565b61123e604083018661104b565b61124b60608301856110de565b6112586080830184610fa6565b9695505050505050565b61126b81610e27565b82525050565b61127a81610de4565b82525050565b61128981610e65565b82525050565b61129881610d4a565b82525050565b610100820160008201516112b56000850182611262565b5060208201516112c86020850182611262565b5060408201516112db6040850182611271565b5060608201516112ee6060850182611262565b5060808201516113016080850182611280565b5060a082015161131460a0850182611280565b5060c082015161132760c0850182611280565b5060e082015161133a60e085018261128f565b50505050565b600061010082019050611356600083018461129e565b92915050565b60008151905061136b81610e6f565b92915050565b60006020828403121561138757611386610e1d565b5b60006113958482850161135c565b91505092915050565b600082825260208201905092915050565b7f4f6e6c792074686520636f6e7472616374206f776e65722063616e2063616c6c60008201527f20746869732066756e6374696f6e000000000000000000000000000000000000602082015250565b600061140b602e8361139e565b9150611416826113af565b604082019050919050565b6000602082019050818103600083015261143a816113fe565b9050919050565b6000606082019050611456600083018661104b565b611463602083018561104b565b61147060408301846110de565b949350505050565b600081519050919050565b600081905092915050565b60005b838110156114ac578082015181840152602081019050611491565b838111156114bb576000848401525b50505050565b60006114cc82611478565b6114d68185611483565b93506114e681856020860161148e565b80840191505092915050565b60006114fe82846114c1565b915081905092915050565b7f5354460000000000000000000000000000000000000000000000000000000000600082015250565b600061153f60038361139e565b915061154a82611509565b602082019050919050565b6000602082019050818103600083015261156e81611532565b9050919050565b7f5341000000000000000000000000000000000000000000000000000000000000600082015250565b60006115ab60028361139e565b91506115b682611575565b602082019050919050565b600060208201905081810360008301526115da8161159e565b9050919050565b600082825260208201905092915050565b6000601f19601f8301169050919050565b600061160e82611478565b61161881856115e1565b935061162881856020860161148e565b611631816115f2565b840191505092915050565b600061ffff82169050919050565b6116538161163c565b82525050565b600060a08201905061166e600083018861104b565b61167b602083018761104b565b61168860408301866110de565b818103606083015261169a8185611603565b90506116a9608083018461164a565b969550505050505056fea264697066735822122055d7f9a15afc7eace6658f772a40477b23c957834a7966371d7b4d5ae5cf259364736f6c634300080a0033","opcodes":"PUSH1 0xC0 PUSH1 0x40 MSTORE CALLVALUE DUP1 ISZERO PUSH3 0x11 JUMPI PUSH1 0x0 DUP1 REVERT JUMPDEST POP PUSH1 0x40 MLOAD PUSH3 0x19E0 CODESIZE SUB DUP1 PUSH3 0x19E0 DUP4 CODECOPY DUP2 DUP2 ADD PUSH1 0x40 MSTORE DUP2 ADD SWAP1 PUSH3 0x37 SWAP2 SWAP1 PUSH3 0x24A JUMP JUMPDEST DUP2 DUP1 PUSH20 0xFFFFFFFFFFFFFFFFFFFFFFFFFFFFFFFFFFFFFFFF AND PUSH1 0x80 DUP2 PUSH20 0xFFFFFFFFFFFFFFFFFFFFFFFFFFFFFFFFFFFFFFFF AND DUP2 MSTORE POP POP DUP1 PUSH20 0xFFFFFFFFFFFFFFFFFFFFFFFFFFFFFFFFFFFFFFFF AND PUSH4 0x26B1D5F PUSH1 0x40 MLOAD DUP2 PUSH4 0xFFFFFFFF AND PUSH1 0xE0 SHL DUP2 MSTORE PUSH1 0x4 ADD PUSH1 0x20 PUSH1 0x40 MLOAD DUP1 DUP4 SUB DUP2 DUP7 GAS STATICCALL ISZERO DUP1 ISZERO PUSH3 0xB8 JUMPI RETURNDATASIZE PUSH1 0x0 DUP1 RETURNDATACOPY RETURNDATASIZE PUSH1 0x0 REVERT JUMPDEST POP POP POP POP PUSH1 0x40 MLOAD RETURNDATASIZE PUSH1 0x1F NOT PUSH1 0x1F DUP3 ADD AND DUP3 ADD DUP1 PUSH1 0x40 MSTORE POP DUP2 ADD SWAP1 PUSH3 0xDE SWAP2 SWAP1 PUSH3 0x291 JUMP JUMPDEST PUSH20 0xFFFFFFFFFFFFFFFFFFFFFFFFFFFFFFFFFFFFFFFF AND PUSH1 0xA0 DUP2 PUSH20 0xFFFFFFFFFFFFFFFFFFFFFFFFFFFFFFFFFFFFFFFF AND DUP2 MSTORE POP POP POP CALLER PUSH1 0x0 DUP1 PUSH2 0x100 EXP DUP2 SLOAD DUP2 PUSH20 0xFFFFFFFFFFFFFFFFFFFFFFFFFFFFFFFFFFFFFFFF MUL NOT AND SWAP1 DUP4 PUSH20 0xFFFFFFFFFFFFFFFFFFFFFFFFFFFFFFFFFFFFFFFF AND MUL OR SWAP1 SSTORE POP DUP1 PUSH1 0x5 PUSH1 0x0 PUSH2 0x100 EXP DUP2 SLOAD DUP2 PUSH20 0xFFFFFFFFFFFFFFFFFFFFFFFFFFFFFFFFFFFFFFFF MUL NOT AND SWAP1 DUP4 PUSH20 0xFFFFFFFFFFFFFFFFFFFFFFFFFFFFFFFFFFFFFFFF AND MUL OR SWAP1 SSTORE POP POP POP PUSH3 0x2C3 JUMP JUMPDEST PUSH1 0x0 DUP1 REVERT JUMPDEST PUSH1 0x0 PUSH20 0xFFFFFFFFFFFFFFFFFFFFFFFFFFFFFFFFFFFFFFFF DUP3 AND SWAP1 POP SWAP2 SWAP1 POP JUMP JUMPDEST PUSH1 0x0 PUSH3 0x1CD DUP3 PUSH3 0x1A0 JUMP JUMPDEST SWAP1 POP SWAP2 SWAP1 POP JUMP JUMPDEST PUSH3 0x1DF DUP2 PUSH3 0x1C0 JUMP JUMPDEST DUP2 EQ PUSH3 0x1EB JUMPI PUSH1 0x0 DUP1 REVERT JUMPDEST POP JUMP JUMPDEST PUSH1 0x0 DUP2 MLOAD SWAP1 POP PUSH3 0x1FF DUP2 PUSH3 0x1D4 JUMP JUMPDEST SWAP3 SWAP2 POP POP JUMP JUMPDEST PUSH1 0x0 PUSH3 0x212 DUP3 PUSH3 0x1C0 JUMP JUMPDEST SWAP1 POP SWAP2 SWAP1 POP JUMP JUMPDEST PUSH3 0x224 DUP2 PUSH3 0x205 JUMP JUMPDEST DUP2 EQ PUSH3 0x230 JUMPI PUSH1 0x0 DUP1 REVERT JUMPDEST POP JUMP JUMPDEST PUSH1 0x0 DUP2 MLOAD SWAP1 POP PUSH3 0x244 DUP2 PUSH3 0x219 JUMP JUMPDEST SWAP3 SWAP2 POP POP JUMP JUMPDEST PUSH1 0x0 DUP1 PUSH1 0x40 DUP4 DUP6 SUB SLT ISZERO PUSH3 0x264 JUMPI PUSH3 0x263 PUSH3 0x19B JUMP JUMPDEST JUMPDEST PUSH1 0x0 PUSH3 0x274 DUP6 DUP3 DUP7 ADD PUSH3 0x1EE JUMP JUMPDEST SWAP3 POP POP PUSH1 0x20 PUSH3 0x287 DUP6 DUP3 DUP7 ADD PUSH3 0x233 JUMP JUMPDEST SWAP2 POP POP SWAP3 POP SWAP3 SWAP1 POP JUMP JUMPDEST PUSH1 0x0 PUSH1 0x20 DUP3 DUP5 SUB SLT ISZERO PUSH3 0x2AA JUMPI PUSH3 0x2A9 PUSH3 0x19B JUMP JUMPDEST JUMPDEST PUSH1 0x0 PUSH3 0x2BA DUP5 DUP3 DUP6 ADD PUSH3 0x1EE JUMP JUMPDEST SWAP2 POP POP SWAP3 SWAP2 POP POP JUMP JUMPDEST PUSH1 0x80 MLOAD PUSH1 0xA0 MLOAD PUSH2 0x16E9 PUSH3 0x2F7 PUSH1 0x0 CODECOPY PUSH1 0x0 DUP2 DUP2 PUSH2 0x2CB ADD MSTORE DUP2 DUP2 PUSH2 0x907 ADD MSTORE PUSH2 0xCB0 ADD MSTORE PUSH1 0x0 PUSH2 0x271 ADD MSTORE PUSH2 0x16E9 PUSH1 0x0 RETURN INVALID PUSH1 0x80 PUSH1 0x40 MSTORE PUSH1 0x4 CALLDATASIZE LT PUSH2 0x95 JUMPI PUSH1 0x0 CALLDATALOAD PUSH1 0xE0 SHR DUP1 PUSH4 0x51CFF8D9 GT PUSH2 0x59 JUMPI DUP1 PUSH4 0x51CFF8D9 EQ PUSH2 0x188 JUMPI DUP1 PUSH4 0x7535D246 EQ PUSH2 0x1B1 JUMPI DUP1 PUSH4 0x89A30271 EQ PUSH2 0x1DC JUMPI DUP1 PUSH4 0xE0BAB4C4 EQ PUSH2 0x207 JUMPI DUP1 PUSH4 0xF8B2CB4F EQ PUSH2 0x232 JUMPI PUSH2 0x9C JUMP JUMPDEST DUP1 PUSH4 0x542975C EQ PUSH2 0xA1 JUMPI DUP1 PUSH4 0x89FE6AA EQ PUSH2 0xCC JUMPI DUP1 PUSH4 0x1B11D0FF EQ PUSH2 0xF7 JUMPI DUP1 PUSH4 0x3B73B6BC EQ PUSH2 0x134 JUMPI DUP1 PUSH4 0x4AA4A4FC EQ PUSH2 0x15D JUMPI PUSH2 0x9C JUMP JUMPDEST CALLDATASIZE PUSH2 0x9C JUMPI STOP JUMPDEST PUSH1 0x0 DUP1 REVERT JUMPDEST CALLVALUE DUP1 ISZERO PUSH2 0xAD JUMPI PUSH1 0x0 DUP1 REVERT JUMPDEST POP PUSH2 0xB6 PUSH2 0x26F JUMP JUMPDEST PUSH1 0x40 MLOAD PUSH2 0xC3 SWAP2 SWAP1 PUSH2 0xDC9 JUMP JUMPDEST PUSH1 0x40 MLOAD DUP1 SWAP2 SUB SWAP1 RETURN JUMPDEST CALLVALUE DUP1 ISZERO PUSH2 0xD8 JUMPI PUSH1 0x0 DUP1 REVERT JUMPDEST POP PUSH2 0xE1 PUSH2 0x293 JUMP JUMPDEST PUSH1 0x40 MLOAD PUSH2 0xEE SWAP2 SWAP1 PUSH2 0xE02 JUMP JUMPDEST PUSH1 0x40 MLOAD DUP1 SWAP2 SUB SWAP1 RETURN JUMPDEST CALLVALUE DUP1 ISZERO PUSH2 0x103 JUMPI PUSH1 0x0 DUP1 REVERT JUMPDEST POP PUSH2 0x11E PUSH1 0x4 DUP1 CALLDATASIZE SUB DUP2 ADD SWAP1 PUSH2 0x119 SWAP2 SWAP1 PUSH2 0xF00 JUMP JUMPDEST PUSH2 0x299 JUMP JUMPDEST PUSH1 0x40 MLOAD PUSH2 0x12B SWAP2 SWAP1 PUSH2 0xFB5 JUMP JUMPDEST PUSH1 0x40 MLOAD DUP1 SWAP2 SUB SWAP1 RETURN JUMPDEST CALLVALUE DUP1 ISZERO PUSH2 0x140 JUMPI PUSH1 0x0 DUP1 REVERT JUMPDEST POP PUSH2 0x15B PUSH1 0x4 DUP1 CALLDATASIZE SUB DUP2 ADD SWAP1 PUSH2 0x156 SWAP2 SWAP1 PUSH2 0xFD0 JUMP JUMPDEST PUSH2 0x6C4 JUMP JUMPDEST STOP JUMPDEST CALLVALUE DUP1 ISZERO PUSH2 0x169 JUMPI PUSH1 0x0 DUP1 REVERT JUMPDEST POP PUSH2 0x172 PUSH2 0x75E JUMP JUMPDEST PUSH1 0x40 MLOAD PUSH2 0x17F SWAP2 SWAP1 PUSH2 0x105A JUMP JUMPDEST PUSH1 0x40 MLOAD DUP1 SWAP2 SUB SWAP1 RETURN JUMPDEST CALLVALUE DUP1 ISZERO PUSH2 0x194 JUMPI PUSH1 0x0 DUP1 REVERT JUMPDEST POP PUSH2 0x1AF PUSH1 0x4 DUP1 CALLDATASIZE SUB DUP2 ADD SWAP1 PUSH2 0x1AA SWAP2 SWAP1 PUSH2 0x1075 JUMP JUMPDEST PUSH2 0x776 JUMP JUMPDEST STOP JUMPDEST CALLVALUE DUP1 ISZERO PUSH2 0x1BD JUMPI PUSH1 0x0 DUP1 REVERT JUMPDEST POP PUSH2 0x1C6 PUSH2 0x905 JUMP JUMPDEST PUSH1 0x40 MLOAD PUSH2 0x1D3 SWAP2 SWAP1 PUSH2 0x10C3 JUMP JUMPDEST PUSH1 0x40 MLOAD DUP1 SWAP2 SUB SWAP1 RETURN JUMPDEST CALLVALUE DUP1 ISZERO PUSH2 0x1E8 JUMPI PUSH1 0x0 DUP1 REVERT JUMPDEST POP PUSH2 0x1F1 PUSH2 0x929 JUMP JUMPDEST PUSH1 0x40 MLOAD PUSH2 0x1FE SWAP2 SWAP1 PUSH2 0x105A JUMP JUMPDEST PUSH1 0x40 MLOAD DUP1 SWAP2 SUB SWAP1 RETURN JUMPDEST CALLVALUE DUP1 ISZERO PUSH2 0x213 JUMPI PUSH1 0x0 DUP1 REVERT JUMPDEST POP PUSH2 0x21C PUSH2 0x941 JUMP JUMPDEST PUSH1 0x40 MLOAD PUSH2 0x229 SWAP2 SWAP1 PUSH2 0x105A JUMP JUMPDEST PUSH1 0x40 MLOAD DUP1 SWAP2 SUB SWAP1 RETURN JUMPDEST CALLVALUE DUP1 ISZERO PUSH2 0x23E JUMPI PUSH1 0x0 DUP1 REVERT JUMPDEST POP PUSH2 0x259 PUSH1 0x4 DUP1 CALLDATASIZE SUB DUP2 ADD SWAP1 PUSH2 0x254 SWAP2 SWAP1 PUSH2 0x1075 JUMP JUMPDEST PUSH2 0x959 JUMP JUMPDEST PUSH1 0x40 MLOAD PUSH2 0x266 SWAP2 SWAP1 PUSH2 0x10ED JUMP JUMPDEST PUSH1 0x40 MLOAD DUP1 SWAP2 SUB SWAP1 RETURN JUMPDEST PUSH32 0x0 DUP2 JUMP JUMPDEST PUSH2 0xBB8 DUP2 JUMP JUMPDEST PUSH1 0x0 DUP1 PUSH1 0x0 DUP1 DUP8 DUP10 PUSH2 0x2AB SWAP2 SWAP1 PUSH2 0x1137 JUMP JUMPDEST SWAP1 POP DUP10 PUSH20 0xFFFFFFFFFFFFFFFFFFFFFFFFFFFFFFFFFFFFFFFF AND PUSH4 0x95EA7B3 PUSH32 0x0 DUP4 PUSH1 0x40 MLOAD DUP4 PUSH4 0xFFFFFFFF AND PUSH1 0xE0 SHL DUP2 MSTORE PUSH1 0x4 ADD PUSH2 0x308 SWAP3 SWAP2 SWAP1 PUSH2 0x118D JUMP JUMPDEST PUSH1 0x20 PUSH1 0x40 MLOAD DUP1 DUP4 SUB DUP2 PUSH1 0x0 DUP8 GAS CALL ISZERO DUP1 ISZERO PUSH2 0x327 JUMPI RETURNDATASIZE PUSH1 0x0 DUP1 RETURNDATACOPY RETURNDATASIZE PUSH1 0x0 REVERT JUMPDEST POP POP POP POP PUSH1 0x40 MLOAD RETURNDATASIZE PUSH1 0x1F NOT PUSH1 0x1F DUP3 ADD AND DUP3 ADD DUP1 PUSH1 0x40 MSTORE POP DUP2 ADD SWAP1 PUSH2 0x34B SWAP2 SWAP1 PUSH2 0x11E2 JUMP JUMPDEST POP PUSH1 0x0 PUSH1 0x2 PUSH1 0x0 SWAP1 SLOAD SWAP1 PUSH2 0x100 EXP SWAP1 DIV PUSH20 0xFFFFFFFFFFFFFFFFFFFFFFFFFFFFFFFFFFFFFFFF AND SWAP1 POP DUP1 PUSH20 0xFFFFFFFFFFFFFFFFFFFFFFFFFFFFFFFFFFFFFFFF AND PUSH3 0xA718A9 PUSH1 0x2 PUSH1 0x0 SWAP1 SLOAD SWAP1 PUSH2 0x100 EXP SWAP1 DIV PUSH20 0xFFFFFFFFFFFFFFFFFFFFFFFFFFFFFFFFFFFFFFFF AND DUP14 PUSH1 0x3 PUSH1 0x0 SWAP1 SLOAD SWAP1 PUSH2 0x100 EXP SWAP1 DIV PUSH20 0xFFFFFFFFFFFFFFFFFFFFFFFFFFFFFFFFFFFFFFFF AND PUSH1 0x4 SLOAD PUSH1 0x0 PUSH1 0x40 MLOAD DUP7 PUSH4 0xFFFFFFFF AND PUSH1 0xE0 SHL DUP2 MSTORE PUSH1 0x4 ADD PUSH2 0x3FA SWAP6 SWAP5 SWAP4 SWAP3 SWAP2 SWAP1 PUSH2 0x120F JUMP JUMPDEST PUSH1 0x0 PUSH1 0x40 MLOAD DUP1 DUP4 SUB DUP2 PUSH1 0x0 DUP8 DUP1 EXTCODESIZE ISZERO DUP1 ISZERO PUSH2 0x414 JUMPI PUSH1 0x0 DUP1 REVERT JUMPDEST POP GAS CALL ISZERO DUP1 ISZERO PUSH2 0x428 JUMPI RETURNDATASIZE PUSH1 0x0 DUP1 RETURNDATACOPY RETURNDATASIZE PUSH1 0x0 REVERT JUMPDEST POP POP POP POP PUSH1 0x2 PUSH1 0x0 SWAP1 SLOAD SWAP1 PUSH2 0x100 EXP SWAP1 DIV PUSH20 0xFFFFFFFFFFFFFFFFFFFFFFFFFFFFFFFFFFFFFFFF AND PUSH20 0xFFFFFFFFFFFFFFFFFFFFFFFFFFFFFFFFFFFFFFFF AND PUSH4 0x95EA7B3 ADDRESS DUP7 PUSH1 0x40 MLOAD DUP4 PUSH4 0xFFFFFFFF AND PUSH1 0xE0 SHL DUP2 MSTORE PUSH1 0x4 ADD PUSH2 0x489 SWAP3 SWAP2 SWAP1 PUSH2 0x118D JUMP JUMPDEST PUSH1 0x20 PUSH1 0x40 MLOAD DUP1 DUP4 SUB DUP2 PUSH1 0x0 DUP8 GAS CALL ISZERO DUP1 ISZERO PUSH2 0x4A8 JUMPI RETURNDATASIZE PUSH1 0x0 DUP1 RETURNDATACOPY RETURNDATASIZE PUSH1 0x0 REVERT JUMPDEST POP POP POP POP PUSH1 0x40 MLOAD RETURNDATASIZE PUSH1 0x1F NOT PUSH1 0x1F DUP3 ADD AND DUP3 ADD DUP1 PUSH1 0x40 MSTORE POP DUP2 ADD SWAP1 PUSH2 0x4CC SWAP2 SWAP1 PUSH2 0x11E2 JUMP JUMPDEST POP PUSH2 0x4FB PUSH1 0x2 PUSH1 0x0 SWAP1 SLOAD SWAP1 PUSH2 0x100 EXP SWAP1 DIV PUSH20 0xFFFFFFFFFFFFFFFFFFFFFFFFFFFFFFFFFFFFFFFF AND DUP10 ADDRESS DUP8 PUSH2 0x9DC JUMP JUMPDEST PUSH2 0x54A PUSH1 0x2 PUSH1 0x0 SWAP1 SLOAD SWAP1 PUSH2 0x100 EXP SWAP1 DIV PUSH20 0xFFFFFFFFFFFFFFFFFFFFFFFFFFFFFFFFFFFFFFFF AND PUSH1 0x5 PUSH1 0x0 SWAP1 SLOAD SWAP1 PUSH2 0x100 EXP SWAP1 DIV PUSH20 0xFFFFFFFFFFFFFFFFFFFFFFFFFFFFFFFFFFFFFFFF AND DUP7 PUSH2 0xB34 JUMP JUMPDEST PUSH1 0x0 PUSH1 0x40 MLOAD DUP1 PUSH2 0x100 ADD PUSH1 0x40 MSTORE DUP1 PUSH20 0x6B175474E89094C44DA98B954EEDEAC495271D0F PUSH20 0xFFFFFFFFFFFFFFFFFFFFFFFFFFFFFFFFFFFFFFFF AND DUP2 MSTORE PUSH1 0x20 ADD PUSH20 0xC02AAA39B223FE8D0A0E5C4F27EAD9083C756CC2 PUSH20 0xFFFFFFFFFFFFFFFFFFFFFFFFFFFFFFFFFFFFFFFF AND DUP2 MSTORE PUSH1 0x20 ADD PUSH2 0xBB8 PUSH3 0xFFFFFF AND DUP2 MSTORE PUSH1 0x20 ADD CALLER PUSH20 0xFFFFFFFFFFFFFFFFFFFFFFFFFFFFFFFFFFFFFFFF AND DUP2 MSTORE PUSH1 0x20 ADD TIMESTAMP DUP2 MSTORE PUSH1 0x20 ADD DUP7 DUP2 MSTORE PUSH1 0x20 ADD PUSH1 0x0 DUP2 MSTORE PUSH1 0x20 ADD PUSH1 0x0 PUSH20 0xFFFFFFFFFFFFFFFFFFFFFFFFFFFFFFFFFFFFFFFF AND DUP2 MSTORE POP SWAP1 POP PUSH1 0x5 PUSH1 0x0 SWAP1 SLOAD SWAP1 PUSH2 0x100 EXP SWAP1 DIV PUSH20 0xFFFFFFFFFFFFFFFFFFFFFFFFFFFFFFFFFFFFFFFF AND PUSH20 0xFFFFFFFFFFFFFFFFFFFFFFFFFFFFFFFFFFFFFFFF AND PUSH4 0x414BF389 DUP3 PUSH1 0x40 MLOAD DUP3 PUSH4 0xFFFFFFFF AND PUSH1 0xE0 SHL DUP2 MSTORE PUSH1 0x4 ADD PUSH2 0x66C SWAP2 SWAP1 PUSH2 0x1340 JUMP JUMPDEST PUSH1 0x20 PUSH1 0x40 MLOAD DUP1 DUP4 SUB DUP2 PUSH1 0x0 DUP8 GAS CALL ISZERO DUP1 ISZERO PUSH2 0x68B JUMPI RETURNDATASIZE PUSH1 0x0 DUP1 RETURNDATACOPY RETURNDATASIZE PUSH1 0x0 REVERT JUMPDEST POP POP POP POP PUSH1 0x40 MLOAD RETURNDATASIZE PUSH1 0x1F NOT PUSH1 0x1F DUP3 ADD AND DUP3 ADD DUP1 PUSH1 0x40 MSTORE POP DUP2 ADD SWAP1 PUSH2 0x6AF SWAP2 SWAP1 PUSH2 0x1371 JUMP JUMPDEST SWAP4 POP PUSH1 0x1 SWAP6 POP POP POP POP POP POP SWAP7 SWAP6 POP POP POP POP POP POP JUMP JUMPDEST DUP3 PUSH1 0x2 PUSH1 0x0 PUSH2 0x100 EXP DUP2 SLOAD DUP2 PUSH20 0xFFFFFFFFFFFFFFFFFFFFFFFFFFFFFFFFFFFFFFFF MUL NOT AND SWAP1 DUP4 PUSH20 0xFFFFFFFFFFFFFFFFFFFFFFFFFFFFFFFFFFFFFFFF AND MUL OR SWAP1 SSTORE POP DUP2 PUSH1 0x3 PUSH1 0x0 PUSH2 0x100 EXP DUP2 SLOAD DUP2 PUSH20 0xFFFFFFFFFFFFFFFFFFFFFFFFFFFFFFFFFFFFFFFF MUL NOT AND SWAP1 DUP4 PUSH20 0xFFFFFFFFFFFFFFFFFFFFFFFFFFFFFFFFFFFFFFFF AND MUL OR SWAP1 SSTORE POP DUP1 PUSH1 0x4 DUP2 SWAP1 SSTORE POP PUSH2 0x757 DUP6 DUP6 PUSH2 0xC89 JUMP JUMPDEST POP POP POP POP POP JUMP JUMPDEST PUSH20 0xC02AAA39B223FE8D0A0E5C4F27EAD9083C756CC2 DUP2 JUMP JUMPDEST PUSH1 0x0 DUP1 SLOAD SWAP1 PUSH2 0x100 EXP SWAP1 DIV PUSH20 0xFFFFFFFFFFFFFFFFFFFFFFFFFFFFFFFFFFFFFFFF AND PUSH20 0xFFFFFFFFFFFFFFFFFFFFFFFFFFFFFFFFFFFFFFFF AND CALLER PUSH20 0xFFFFFFFFFFFFFFFFFFFFFFFFFFFFFFFFFFFFFFFF AND EQ PUSH2 0x804 JUMPI PUSH1 0x40 MLOAD PUSH32 0x8C379A000000000000000000000000000000000000000000000000000000000 DUP2 MSTORE PUSH1 0x4 ADD PUSH2 0x7FB SWAP1 PUSH2 0x1421 JUMP JUMPDEST PUSH1 0x40 MLOAD DUP1 SWAP2 SUB SWAP1 REVERT JUMPDEST PUSH1 0x0 DUP2 SWAP1 POP DUP1 PUSH20 0xFFFFFFFFFFFFFFFFFFFFFFFFFFFFFFFFFFFFFFFF AND PUSH4 0xA9059CBB CALLER DUP4 PUSH20 0xFFFFFFFFFFFFFFFFFFFFFFFFFFFFFFFFFFFFFFFF AND PUSH4 0x70A08231 ADDRESS PUSH1 0x40 MLOAD DUP3 PUSH4 0xFFFFFFFF AND PUSH1 0xE0 SHL DUP2 MSTORE PUSH1 0x4 ADD PUSH2 0x85F SWAP2 SWAP1 PUSH2 0x105A JUMP JUMPDEST PUSH1 0x20 PUSH1 0x40 MLOAD DUP1 DUP4 SUB DUP2 DUP7 GAS STATICCALL ISZERO DUP1 ISZERO PUSH2 0x87C JUMPI RETURNDATASIZE PUSH1 0x0 DUP1 RETURNDATACOPY RETURNDATASIZE PUSH1 0x0 REVERT JUMPDEST POP POP POP POP PUSH1 0x40 MLOAD RETURNDATASIZE PUSH1 0x1F NOT PUSH1 0x1F DUP3 ADD AND DUP3 ADD DUP1 PUSH1 0x40 MSTORE POP DUP2 ADD SWAP1 PUSH2 0x8A0 SWAP2 SWAP1 PUSH2 0x1371 JUMP JUMPDEST PUSH1 0x40 MLOAD DUP4 PUSH4 0xFFFFFFFF AND PUSH1 0xE0 SHL DUP2 MSTORE PUSH1 0x4 ADD PUSH2 0x8BD SWAP3 SWAP2 SWAP1 PUSH2 0x118D JUMP JUMPDEST PUSH1 0x20 PUSH1 0x40 MLOAD DUP1 DUP4 SUB DUP2 PUSH1 0x0 DUP8 GAS CALL ISZERO DUP1 ISZERO PUSH2 0x8DC JUMPI RETURNDATASIZE PUSH1 0x0 DUP1 RETURNDATACOPY RETURNDATASIZE PUSH1 0x0 REVERT JUMPDEST POP POP POP POP PUSH1 0x40 MLOAD RETURNDATASIZE PUSH1 0x1F NOT PUSH1 0x1F DUP3 ADD AND DUP3 ADD DUP1 PUSH1 0x40 MSTORE POP DUP2 ADD SWAP1 PUSH2 0x900 SWAP2 SWAP1 PUSH2 0x11E2 JUMP JUMPDEST POP POP POP JUMP JUMPDEST PUSH32 0x0 DUP2 JUMP JUMPDEST PUSH20 0xA0B86991C6218B36C1D19D4A2E9EB0CE3606EB48 DUP2 JUMP JUMPDEST PUSH20 0x6B175474E89094C44DA98B954EEDEAC495271D0F DUP2 JUMP JUMPDEST PUSH1 0x0 DUP2 PUSH20 0xFFFFFFFFFFFFFFFFFFFFFFFFFFFFFFFFFFFFFFFF AND PUSH4 0x70A08231 ADDRESS PUSH1 0x40 MLOAD DUP3 PUSH4 0xFFFFFFFF AND PUSH1 0xE0 SHL DUP2 MSTORE PUSH1 0x4 ADD PUSH2 0x994 SWAP2 SWAP1 PUSH2 0x105A JUMP JUMPDEST PUSH1 0x20 PUSH1 0x40 MLOAD DUP1 DUP4 SUB DUP2 DUP7 GAS STATICCALL ISZERO DUP1 ISZERO PUSH2 0x9B1 JUMPI RETURNDATASIZE PUSH1 0x0 DUP1 RETURNDATACOPY RETURNDATASIZE PUSH1 0x0 REVERT JUMPDEST POP POP POP POP PUSH1 0x40 MLOAD RETURNDATASIZE PUSH1 0x1F NOT PUSH1 0x1F DUP3 ADD AND DUP3 ADD DUP1 PUSH1 0x40 MSTORE POP DUP2 ADD SWAP1 PUSH2 0x9D5 SWAP2 SWAP1 PUSH2 0x1371 JUMP JUMPDEST SWAP1 POP SWAP2 SWAP1 POP JUMP JUMPDEST PUSH1 0x0 DUP1 DUP6 PUSH20 0xFFFFFFFFFFFFFFFFFFFFFFFFFFFFFFFFFFFFFFFF AND PUSH4 0x23B872DD PUSH1 0xE0 SHL DUP7 DUP7 DUP7 PUSH1 0x40 MLOAD PUSH1 0x24 ADD PUSH2 0xA13 SWAP4 SWAP3 SWAP2 SWAP1 PUSH2 0x1441 JUMP JUMPDEST PUSH1 0x40 MLOAD PUSH1 0x20 DUP2 DUP4 SUB SUB DUP2 MSTORE SWAP1 PUSH1 0x40 MSTORE SWAP1 PUSH28 0xFFFFFFFFFFFFFFFFFFFFFFFFFFFFFFFFFFFFFFFFFFFFFFFFFFFFFFFF NOT AND PUSH1 0x20 DUP3 ADD DUP1 MLOAD PUSH28 0xFFFFFFFFFFFFFFFFFFFFFFFFFFFFFFFFFFFFFFFFFFFFFFFFFFFFFFFF DUP4 DUP2 DUP4 AND OR DUP4 MSTORE POP POP POP POP PUSH1 0x40 MLOAD PUSH2 0xA7D SWAP2 SWAP1 PUSH2 0x14F2 JUMP JUMPDEST PUSH1 0x0 PUSH1 0x40 MLOAD DUP1 DUP4 SUB DUP2 PUSH1 0x0 DUP7 GAS CALL SWAP2 POP POP RETURNDATASIZE DUP1 PUSH1 0x0 DUP2 EQ PUSH2 0xABA JUMPI PUSH1 0x40 MLOAD SWAP2 POP PUSH1 0x1F NOT PUSH1 0x3F RETURNDATASIZE ADD AND DUP3 ADD PUSH1 0x40 MSTORE RETURNDATASIZE DUP3 MSTORE RETURNDATASIZE PUSH1 0x0 PUSH1 0x20 DUP5 ADD RETURNDATACOPY PUSH2 0xABF JUMP JUMPDEST PUSH1 0x60 SWAP2 POP JUMPDEST POP SWAP2 POP SWAP2 POP DUP2 DUP1 ISZERO PUSH2 0xAED JUMPI POP PUSH1 0x0 DUP2 MLOAD EQ DUP1 PUSH2 0xAEC JUMPI POP DUP1 DUP1 PUSH1 0x20 ADD SWAP1 MLOAD DUP2 ADD SWAP1 PUSH2 0xAEB SWAP2 SWAP1 PUSH2 0x11E2 JUMP JUMPDEST JUMPDEST JUMPDEST PUSH2 0xB2C JUMPI PUSH1 0x40 MLOAD PUSH32 0x8C379A000000000000000000000000000000000000000000000000000000000 DUP2 MSTORE PUSH1 0x4 ADD PUSH2 0xB23 SWAP1 PUSH2 0x1555 JUMP JUMPDEST PUSH1 0x40 MLOAD DUP1 SWAP2 SUB SWAP1 REVERT JUMPDEST POP POP POP POP POP POP JUMP JUMPDEST PUSH1 0x0 DUP1 DUP5 PUSH20 0xFFFFFFFFFFFFFFFFFFFFFFFFFFFFFFFFFFFFFFFF AND PUSH4 0x95EA7B3 PUSH1 0xE0 SHL DUP6 DUP6 PUSH1 0x40 MLOAD PUSH1 0x24 ADD PUSH2 0xB69 SWAP3 SWAP2 SWAP1 PUSH2 0x118D JUMP JUMPDEST PUSH1 0x40 MLOAD PUSH1 0x20 DUP2 DUP4 SUB SUB DUP2 MSTORE SWAP1 PUSH1 0x40 MSTORE SWAP1 PUSH28 0xFFFFFFFFFFFFFFFFFFFFFFFFFFFFFFFFFFFFFFFFFFFFFFFFFFFFFFFF NOT AND PUSH1 0x20 DUP3 ADD DUP1 MLOAD PUSH28 0xFFFFFFFFFFFFFFFFFFFFFFFFFFFFFFFFFFFFFFFFFFFFFFFFFFFFFFFF DUP4 DUP2 DUP4 AND OR DUP4 MSTORE POP POP POP POP PUSH1 0x40 MLOAD PUSH2 0xBD3 SWAP2 SWAP1 PUSH2 0x14F2 JUMP JUMPDEST PUSH1 0x0 PUSH1 0x40 MLOAD DUP1 DUP4 SUB DUP2 PUSH1 0x0 DUP7 GAS CALL SWAP2 POP POP RETURNDATASIZE DUP1 PUSH1 0x0 DUP2 EQ PUSH2 0xC10 JUMPI PUSH1 0x40 MLOAD SWAP2 POP PUSH1 0x1F NOT PUSH1 0x3F RETURNDATASIZE ADD AND DUP3 ADD PUSH1 0x40 MSTORE RETURNDATASIZE DUP3 MSTORE RETURNDATASIZE PUSH1 0x0 PUSH1 0x20 DUP5 ADD RETURNDATACOPY PUSH2 0xC15 JUMP JUMPDEST PUSH1 0x60 SWAP2 POP JUMPDEST POP SWAP2 POP SWAP2 POP DUP2 DUP1 ISZERO PUSH2 0xC43 JUMPI POP PUSH1 0x0 DUP2 MLOAD EQ DUP1 PUSH2 0xC42 JUMPI POP DUP1 DUP1 PUSH1 0x20 ADD SWAP1 MLOAD DUP2 ADD SWAP1 PUSH2 0xC41 SWAP2 SWAP1 PUSH2 0x11E2 JUMP JUMPDEST JUMPDEST JUMPDEST PUSH2 0xC82 JUMPI PUSH1 0x40 MLOAD PUSH32 0x8C379A000000000000000000000000000000000000000000000000000000000 DUP2 MSTORE PUSH1 0x4 ADD PUSH2 0xC79 SWAP1 PUSH2 0x15C1 JUMP JUMPDEST PUSH1 0x40 MLOAD DUP1 SWAP2 SUB SWAP1 REVERT JUMPDEST POP POP POP POP POP JUMP JUMPDEST PUSH1 0x0 ADDRESS SWAP1 POP PUSH1 0x0 DUP4 SWAP1 POP PUSH1 0x0 DUP4 SWAP1 POP PUSH1 0x0 PUSH1 0x40 MLOAD DUP1 PUSH1 0x20 ADD PUSH1 0x40 MSTORE DUP1 PUSH1 0x0 DUP2 MSTORE POP SWAP1 POP PUSH1 0x0 PUSH32 0x0 PUSH20 0xFFFFFFFFFFFFFFFFFFFFFFFFFFFFFFFFFFFFFFFF AND PUSH4 0x42B0B77C DUP7 DUP7 DUP7 DUP7 DUP7 PUSH1 0x40 MLOAD DUP7 PUSH4 0xFFFFFFFF AND PUSH1 0xE0 SHL DUP2 MSTORE PUSH1 0x4 ADD PUSH2 0xD0F SWAP6 SWAP5 SWAP4 SWAP3 SWAP2 SWAP1 PUSH2 0x1659 JUMP JUMPDEST PUSH1 0x0 PUSH1 0x40 MLOAD DUP1 DUP4 SUB DUP2 PUSH1 0x0 DUP8 DUP1 EXTCODESIZE ISZERO DUP1 ISZERO PUSH2 0xD29 JUMPI PUSH1 0x0 DUP1 REVERT JUMPDEST POP GAS CALL ISZERO DUP1 ISZERO PUSH2 0xD3D JUMPI RETURNDATASIZE PUSH1 0x0 DUP1 RETURNDATACOPY RETURNDATASIZE PUSH1 0x0 REVERT JUMPDEST POP POP POP POP POP POP POP POP POP POP POP JUMP JUMPDEST PUSH1 0x0 PUSH20 0xFFFFFFFFFFFFFFFFFFFFFFFFFFFFFFFFFFFFFFFF DUP3 AND SWAP1 POP SWAP2 SWAP1 POP JUMP JUMPDEST PUSH1 0x0 DUP2 SWAP1 POP SWAP2 SWAP1 POP JUMP JUMPDEST PUSH1 0x0 PUSH2 0xD8F PUSH2 0xD8A PUSH2 0xD85 DUP5 PUSH2 0xD4A JUMP JUMPDEST PUSH2 0xD6A JUMP JUMPDEST PUSH2 0xD4A JUMP JUMPDEST SWAP1 POP SWAP2 SWAP1 POP JUMP JUMPDEST PUSH1 0x0 PUSH2 0xDA1 DUP3 PUSH2 0xD74 JUMP JUMPDEST SWAP1 POP SWAP2 SWAP1 POP JUMP JUMPDEST PUSH1 0x0 PUSH2 0xDB3 DUP3 PUSH2 0xD96 JUMP JUMPDEST SWAP1 POP SWAP2 SWAP1 POP JUMP JUMPDEST PUSH2 0xDC3 DUP2 PUSH2 0xDA8 JUMP JUMPDEST DUP3 MSTORE POP POP JUMP JUMPDEST PUSH1 0x0 PUSH1 0x20 DUP3 ADD SWAP1 POP PUSH2 0xDDE PUSH1 0x0 DUP4 ADD DUP5 PUSH2 0xDBA JUMP JUMPDEST SWAP3 SWAP2 POP POP JUMP JUMPDEST PUSH1 0x0 PUSH3 0xFFFFFF DUP3 AND SWAP1 POP SWAP2 SWAP1 POP JUMP JUMPDEST PUSH2 0xDFC DUP2 PUSH2 0xDE4 JUMP JUMPDEST DUP3 MSTORE POP POP JUMP JUMPDEST PUSH1 0x0 PUSH1 0x20 DUP3 ADD SWAP1 POP PUSH2 0xE17 PUSH1 0x0 DUP4 ADD DUP5 PUSH2 0xDF3 JUMP JUMPDEST SWAP3 SWAP2 POP POP JUMP JUMPDEST PUSH1 0x0 DUP1 REVERT JUMPDEST PUSH1 0x0 DUP1 REVERT JUMPDEST PUSH1 0x0 PUSH2 0xE32 DUP3 PUSH2 0xD4A JUMP JUMPDEST SWAP1 POP SWAP2 SWAP1 POP JUMP JUMPDEST PUSH2 0xE42 DUP2 PUSH2 0xE27 JUMP JUMPDEST DUP2 EQ PUSH2 0xE4D JUMPI PUSH1 0x0 DUP1 REVERT JUMPDEST POP JUMP JUMPDEST PUSH1 0x0 DUP2 CALLDATALOAD SWAP1 POP PUSH2 0xE5F DUP2 PUSH2 0xE39 JUMP JUMPDEST SWAP3 SWAP2 POP POP JUMP JUMPDEST PUSH1 0x0 DUP2 SWAP1 POP SWAP2 SWAP1 POP JUMP JUMPDEST PUSH2 0xE78 DUP2 PUSH2 0xE65 JUMP JUMPDEST DUP2 EQ PUSH2 0xE83 JUMPI PUSH1 0x0 DUP1 REVERT JUMPDEST POP JUMP JUMPDEST PUSH1 0x0 DUP2 CALLDATALOAD SWAP1 POP PUSH2 0xE95 DUP2 PUSH2 0xE6F JUMP JUMPDEST SWAP3 SWAP2 POP POP JUMP JUMPDEST PUSH1 0x0 DUP1 REVERT JUMPDEST PUSH1 0x0 DUP1 REVERT JUMPDEST PUSH1 0x0 DUP1 REVERT JUMPDEST PUSH1 0x0 DUP1 DUP4 PUSH1 0x1F DUP5 ADD SLT PUSH2 0xEC0 JUMPI PUSH2 0xEBF PUSH2 0xE9B JUMP JUMPDEST JUMPDEST DUP3 CALLDATALOAD SWAP1 POP PUSH8 0xFFFFFFFFFFFFFFFF DUP2 GT ISZERO PUSH2 0xEDD JUMPI PUSH2 0xEDC PUSH2 0xEA0 JUMP JUMPDEST JUMPDEST PUSH1 0x20 DUP4 ADD SWAP2 POP DUP4 PUSH1 0x1 DUP3 MUL DUP4 ADD GT ISZERO PUSH2 0xEF9 JUMPI PUSH2 0xEF8 PUSH2 0xEA5 JUMP JUMPDEST JUMPDEST SWAP3 POP SWAP3 SWAP1 POP JUMP JUMPDEST PUSH1 0x0 DUP1 PUSH1 0x0 DUP1 PUSH1 0x0 DUP1 PUSH1 0xA0 DUP8 DUP10 SUB SLT ISZERO PUSH2 0xF1D JUMPI PUSH2 0xF1C PUSH2 0xE1D JUMP JUMPDEST JUMPDEST PUSH1 0x0 PUSH2 0xF2B DUP10 DUP3 DUP11 ADD PUSH2 0xE50 JUMP JUMPDEST SWAP7 POP POP PUSH1 0x20 PUSH2 0xF3C DUP10 DUP3 DUP11 ADD PUSH2 0xE86 JUMP JUMPDEST SWAP6 POP POP PUSH1 0x40 PUSH2 0xF4D DUP10 DUP3 DUP11 ADD PUSH2 0xE86 JUMP JUMPDEST SWAP5 POP POP PUSH1 0x60 PUSH2 0xF5E DUP10 DUP3 DUP11 ADD PUSH2 0xE50 JUMP JUMPDEST SWAP4 POP POP PUSH1 0x80 DUP8 ADD CALLDATALOAD PUSH8 0xFFFFFFFFFFFFFFFF DUP2 GT ISZERO PUSH2 0xF7F JUMPI PUSH2 0xF7E PUSH2 0xE22 JUMP JUMPDEST JUMPDEST PUSH2 0xF8B DUP10 DUP3 DUP11 ADD PUSH2 0xEAA JUMP JUMPDEST SWAP3 POP SWAP3 POP POP SWAP3 SWAP6 POP SWAP3 SWAP6 POP SWAP3 SWAP6 JUMP JUMPDEST PUSH1 0x0 DUP2 ISZERO ISZERO SWAP1 POP SWAP2 SWAP1 POP JUMP JUMPDEST PUSH2 0xFAF DUP2 PUSH2 0xF9A JUMP JUMPDEST DUP3 MSTORE POP POP JUMP JUMPDEST PUSH1 0x0 PUSH1 0x20 DUP3 ADD SWAP1 POP PUSH2 0xFCA PUSH1 0x0 DUP4 ADD DUP5 PUSH2 0xFA6 JUMP JUMPDEST SWAP3 SWAP2 POP POP JUMP JUMPDEST PUSH1 0x0 DUP1 PUSH1 0x0 DUP1 PUSH1 0x0 PUSH1 0xA0 DUP7 DUP9 SUB SLT ISZERO PUSH2 0xFEC JUMPI PUSH2 0xFEB PUSH2 0xE1D JUMP JUMPDEST JUMPDEST PUSH1 0x0 PUSH2 0xFFA DUP9 DUP3 DUP10 ADD PUSH2 0xE50 JUMP JUMPDEST SWAP6 POP POP PUSH1 0x20 PUSH2 0x100B DUP9 DUP3 DUP10 ADD PUSH2 0xE86 JUMP JUMPDEST SWAP5 POP POP PUSH1 0x40 PUSH2 0x101C DUP9 DUP3 DUP10 ADD PUSH2 0xE50 JUMP JUMPDEST SWAP4 POP POP PUSH1 0x60 PUSH2 0x102D DUP9 DUP3 DUP10 ADD PUSH2 0xE50 JUMP JUMPDEST SWAP3 POP POP PUSH1 0x80 PUSH2 0x103E DUP9 DUP3 DUP10 ADD PUSH2 0xE86 JUMP JUMPDEST SWAP2 POP POP SWAP3 SWAP6 POP SWAP3 SWAP6 SWAP1 SWAP4 POP JUMP JUMPDEST PUSH2 0x1054 DUP2 PUSH2 0xE27 JUMP JUMPDEST DUP3 MSTORE POP POP JUMP JUMPDEST PUSH1 0x0 PUSH1 0x20 DUP3 ADD SWAP1 POP PUSH2 0x106F PUSH1 0x0 DUP4 ADD DUP5 PUSH2 0x104B JUMP JUMPDEST SWAP3 SWAP2 POP POP JUMP JUMPDEST PUSH1 0x0 PUSH1 0x20 DUP3 DUP5 SUB SLT ISZERO PUSH2 0x108B JUMPI PUSH2 0x108A PUSH2 0xE1D JUMP JUMPDEST JUMPDEST PUSH1 0x0 PUSH2 0x1099 DUP5 DUP3 DUP6 ADD PUSH2 0xE50 JUMP JUMPDEST SWAP2 POP POP SWAP3 SWAP2 POP POP JUMP JUMPDEST PUSH1 0x0 PUSH2 0x10AD DUP3 PUSH2 0xD96 JUMP JUMPDEST SWAP1 POP SWAP2 SWAP1 POP JUMP JUMPDEST PUSH2 0x10BD DUP2 PUSH2 0x10A2 JUMP JUMPDEST DUP3 MSTORE POP POP JUMP JUMPDEST PUSH1 0x0 PUSH1 0x20 DUP3 ADD SWAP1 POP PUSH2 0x10D8 PUSH1 0x0 DUP4 ADD DUP5 PUSH2 0x10B4 JUMP JUMPDEST SWAP3 SWAP2 POP POP JUMP JUMPDEST PUSH2 0x10E7 DUP2 PUSH2 0xE65 JUMP JUMPDEST DUP3 MSTORE POP POP JUMP JUMPDEST PUSH1 0x0 PUSH1 0x20 DUP3 ADD SWAP1 POP PUSH2 0x1102 PUSH1 0x0 DUP4 ADD DUP5 PUSH2 0x10DE JUMP JUMPDEST SWAP3 SWAP2 POP POP JUMP JUMPDEST PUSH32 0x4E487B7100000000000000000000000000000000000000000000000000000000 PUSH1 0x0 MSTORE PUSH1 0x11 PUSH1 0x4 MSTORE PUSH1 0x24 PUSH1 0x0 REVERT JUMPDEST PUSH1 0x0 PUSH2 0x1142 DUP3 PUSH2 0xE65 JUMP JUMPDEST SWAP2 POP PUSH2 0x114D DUP4 PUSH2 0xE65 JUMP JUMPDEST SWAP3 POP DUP3 PUSH32 0xFFFFFFFFFFFFFFFFFFFFFFFFFFFFFFFFFFFFFFFFFFFFFFFFFFFFFFFFFFFFFFFF SUB DUP3 GT ISZERO PUSH2 0x1182 JUMPI PUSH2 0x1181 PUSH2 0x1108 JUMP JUMPDEST JUMPDEST DUP3 DUP3 ADD SWAP1 POP SWAP3 SWAP2 POP POP JUMP JUMPDEST PUSH1 0x0 PUSH1 0x40 DUP3 ADD SWAP1 POP PUSH2 0x11A2 PUSH1 0x0 DUP4 ADD DUP6 PUSH2 0x104B JUMP JUMPDEST PUSH2 0x11AF PUSH1 0x20 DUP4 ADD DUP5 PUSH2 0x10DE JUMP JUMPDEST SWAP4 SWAP3 POP POP POP JUMP JUMPDEST PUSH2 0x11BF DUP2 PUSH2 0xF9A JUMP JUMPDEST DUP2 EQ PUSH2 0x11CA JUMPI PUSH1 0x0 DUP1 REVERT JUMPDEST POP JUMP JUMPDEST PUSH1 0x0 DUP2 MLOAD SWAP1 POP PUSH2 0x11DC DUP2 PUSH2 0x11B6 JUMP JUMPDEST SWAP3 SWAP2 POP POP JUMP JUMPDEST PUSH1 0x0 PUSH1 0x20 DUP3 DUP5 SUB SLT ISZERO PUSH2 0x11F8 JUMPI PUSH2 0x11F7 PUSH2 0xE1D JUMP JUMPDEST JUMPDEST PUSH1 0x0 PUSH2 0x1206 DUP5 DUP3 DUP6 ADD PUSH2 0x11CD JUMP JUMPDEST SWAP2 POP POP SWAP3 SWAP2 POP POP JUMP JUMPDEST PUSH1 0x0 PUSH1 0xA0 DUP3 ADD SWAP1 POP PUSH2 0x1224 PUSH1 0x0 DUP4 ADD DUP9 PUSH2 0x104B JUMP JUMPDEST PUSH2 0x1231 PUSH1 0x20 DUP4 ADD DUP8 PUSH2 0x104B JUMP JUMPDEST PUSH2 0x123E PUSH1 0x40 DUP4 ADD DUP7 PUSH2 0x104B JUMP JUMPDEST PUSH2 0x124B PUSH1 0x60 DUP4 ADD DUP6 PUSH2 0x10DE JUMP JUMPDEST PUSH2 0x1258 PUSH1 0x80 DUP4 ADD DUP5 PUSH2 0xFA6 JUMP JUMPDEST SWAP7 SWAP6 POP POP POP POP POP POP JUMP JUMPDEST PUSH2 0x126B DUP2 PUSH2 0xE27 JUMP JUMPDEST DUP3 MSTORE POP POP JUMP JUMPDEST PUSH2 0x127A DUP2 PUSH2 0xDE4 JUMP JUMPDEST DUP3 MSTORE POP POP JUMP JUMPDEST PUSH2 0x1289 DUP2 PUSH2 0xE65 JUMP JUMPDEST DUP3 MSTORE POP POP JUMP JUMPDEST PUSH2 0x1298 DUP2 PUSH2 0xD4A JUMP JUMPDEST DUP3 MSTORE POP POP JUMP JUMPDEST PUSH2 0x100 DUP3 ADD PUSH1 0x0 DUP3 ADD MLOAD PUSH2 0x12B5 PUSH1 0x0 DUP6 ADD DUP3 PUSH2 0x1262 JUMP JUMPDEST POP PUSH1 0x20 DUP3 ADD MLOAD PUSH2 0x12C8 PUSH1 0x20 DUP6 ADD DUP3 PUSH2 0x1262 JUMP JUMPDEST POP PUSH1 0x40 DUP3 ADD MLOAD PUSH2 0x12DB PUSH1 0x40 DUP6 ADD DUP3 PUSH2 0x1271 JUMP JUMPDEST POP PUSH1 0x60 DUP3 ADD MLOAD PUSH2 0x12EE PUSH1 0x60 DUP6 ADD DUP3 PUSH2 0x1262 JUMP JUMPDEST POP PUSH1 0x80 DUP3 ADD MLOAD PUSH2 0x1301 PUSH1 0x80 DUP6 ADD DUP3 PUSH2 0x1280 JUMP JUMPDEST POP PUSH1 0xA0 DUP3 ADD MLOAD PUSH2 0x1314 PUSH1 0xA0 DUP6 ADD DUP3 PUSH2 0x1280 JUMP JUMPDEST POP PUSH1 0xC0 DUP3 ADD MLOAD PUSH2 0x1327 PUSH1 0xC0 DUP6 ADD DUP3 PUSH2 0x1280 JUMP JUMPDEST POP PUSH1 0xE0 DUP3 ADD MLOAD PUSH2 0x133A PUSH1 0xE0 DUP6 ADD DUP3 PUSH2 0x128F JUMP JUMPDEST POP POP POP POP JUMP JUMPDEST PUSH1 0x0 PUSH2 0x100 DUP3 ADD SWAP1 POP PUSH2 0x1356 PUSH1 0x0 DUP4 ADD DUP5 PUSH2 0x129E JUMP JUMPDEST SWAP3 SWAP2 POP POP JUMP JUMPDEST PUSH1 0x0 DUP2 MLOAD SWAP1 POP PUSH2 0x136B DUP2 PUSH2 0xE6F JUMP JUMPDEST SWAP3 SWAP2 POP POP JUMP JUMPDEST PUSH1 0x0 PUSH1 0x20 DUP3 DUP5 SUB SLT ISZERO PUSH2 0x1387 JUMPI PUSH2 0x1386 PUSH2 0xE1D JUMP JUMPDEST JUMPDEST PUSH1 0x0 PUSH2 0x1395 DUP5 DUP3 DUP6 ADD PUSH2 0x135C JUMP JUMPDEST SWAP2 POP POP SWAP3 SWAP2 POP POP JUMP JUMPDEST PUSH1 0x0 DUP3 DUP3 MSTORE PUSH1 0x20 DUP3 ADD SWAP1 POP SWAP3 SWAP2 POP POP JUMP JUMPDEST PUSH32 0x4F6E6C792074686520636F6E7472616374206F776E65722063616E2063616C6C PUSH1 0x0 DUP3 ADD MSTORE PUSH32 0x20746869732066756E6374696F6E000000000000000000000000000000000000 PUSH1 0x20 DUP3 ADD MSTORE POP JUMP JUMPDEST PUSH1 0x0 PUSH2 0x140B PUSH1 0x2E DUP4 PUSH2 0x139E JUMP JUMPDEST SWAP2 POP PUSH2 0x1416 DUP3 PUSH2 0x13AF JUMP JUMPDEST PUSH1 0x40 DUP3 ADD SWAP1 POP SWAP2 SWAP1 POP JUMP JUMPDEST PUSH1 0x0 PUSH1 0x20 DUP3 ADD SWAP1 POP DUP2 DUP2 SUB PUSH1 0x0 DUP4 ADD MSTORE PUSH2 0x143A DUP2 PUSH2 0x13FE JUMP JUMPDEST SWAP1 POP SWAP2 SWAP1 POP JUMP JUMPDEST PUSH1 0x0 PUSH1 0x60 DUP3 ADD SWAP1 POP PUSH2 0x1456 PUSH1 0x0 DUP4 ADD DUP7 PUSH2 0x104B JUMP JUMPDEST PUSH2 0x1463 PUSH1 0x20 DUP4 ADD DUP6 PUSH2 0x104B JUMP JUMPDEST PUSH2 0x1470 PUSH1 0x40 DUP4 ADD DUP5 PUSH2 0x10DE JUMP JUMPDEST SWAP5 SWAP4 POP POP POP POP JUMP JUMPDEST PUSH1 0x0 DUP2 MLOAD SWAP1 POP SWAP2 SWAP1 POP JUMP JUMPDEST PUSH1 0x0 DUP2 SWAP1 POP SWAP3 SWAP2 POP POP JUMP JUMPDEST PUSH1 0x0 JUMPDEST DUP4 DUP2 LT ISZERO PUSH2 0x14AC JUMPI DUP1 DUP3 ADD MLOAD DUP2 DUP5 ADD MSTORE PUSH1 0x20 DUP2 ADD SWAP1 POP PUSH2 0x1491 JUMP JUMPDEST DUP4 DUP2 GT ISZERO PUSH2 0x14BB JUMPI PUSH1 0x0 DUP5 DUP5 ADD MSTORE JUMPDEST POP POP POP POP JUMP JUMPDEST PUSH1 0x0 PUSH2 0x14CC DUP3 PUSH2 0x1478 JUMP JUMPDEST PUSH2 0x14D6 DUP2 DUP6 PUSH2 0x1483 JUMP JUMPDEST SWAP4 POP PUSH2 0x14E6 DUP2 DUP6 PUSH1 0x20 DUP7 ADD PUSH2 0x148E JUMP JUMPDEST DUP1 DUP5 ADD SWAP2 POP POP SWAP3 SWAP2 POP POP JUMP JUMPDEST PUSH1 0x0 PUSH2 0x14FE DUP3 DUP5 PUSH2 0x14C1 JUMP JUMPDEST SWAP2 POP DUP2 SWAP1 POP SWAP3 SWAP2 POP POP JUMP JUMPDEST PUSH32 0x5354460000000000000000000000000000000000000000000000000000000000 PUSH1 0x0 DUP3 ADD MSTORE POP JUMP JUMPDEST PUSH1 0x0 PUSH2 0x153F PUSH1 0x3 DUP4 PUSH2 0x139E JUMP JUMPDEST SWAP2 POP PUSH2 0x154A DUP3 PUSH2 0x1509 JUMP JUMPDEST PUSH1 0x20 DUP3 ADD SWAP1 POP SWAP2 SWAP1 POP JUMP JUMPDEST PUSH1 0x0 PUSH1 0x20 DUP3 ADD SWAP1 POP DUP2 DUP2 SUB PUSH1 0x0 DUP4 ADD MSTORE PUSH2 0x156E DUP2 PUSH2 0x1532 JUMP JUMPDEST SWAP1 POP SWAP2 SWAP1 POP JUMP JUMPDEST PUSH32 0x5341000000000000000000000000000000000000000000000000000000000000 PUSH1 0x0 DUP3 ADD MSTORE POP JUMP JUMPDEST PUSH1 0x0 PUSH2 0x15AB PUSH1 0x2 DUP4 PUSH2 0x139E JUMP JUMPDEST SWAP2 POP PUSH2 0x15B6 DUP3 PUSH2 0x1575 JUMP JUMPDEST PUSH1 0x20 DUP3 ADD SWAP1 POP SWAP2 SWAP1 POP JUMP JUMPDEST PUSH1 0x0 PUSH1 0x20 DUP3 ADD SWAP1 POP DUP2 DUP2 SUB PUSH1 0x0 DUP4 ADD MSTORE PUSH2 0x15DA DUP2 PUSH2 0x159E JUMP JUMPDEST SWAP1 POP SWAP2 SWAP1 POP JUMP JUMPDEST PUSH1 0x0 DUP3 DUP3 MSTORE PUSH1 0x20 DUP3 ADD SWAP1 POP SWAP3 SWAP2 POP POP JUMP JUMPDEST PUSH1 0x0 PUSH1 0x1F NOT PUSH1 0x1F DUP4 ADD AND SWAP1 POP SWAP2 SWAP1 POP JUMP JUMPDEST PUSH1 0x0 PUSH2 0x160E DUP3 PUSH2 0x1478 JUMP JUMPDEST PUSH2 0x1618 DUP2 DUP6 PUSH2 0x15E1 JUMP JUMPDEST SWAP4 POP PUSH2 0x1628 DUP2 DUP6 PUSH1 0x20 DUP7 ADD PUSH2 0x148E JUMP JUMPDEST PUSH2 0x1631 DUP2 PUSH2 0x15F2 JUMP JUMPDEST DUP5 ADD SWAP2 POP POP SWAP3 SWAP2 POP POP JUMP JUMPDEST PUSH1 0x0 PUSH2 0xFFFF DUP3 AND SWAP1 POP SWAP2 SWAP1 POP JUMP JUMPDEST PUSH2 0x1653 DUP2 PUSH2 0x163C JUMP JUMPDEST DUP3 MSTORE POP POP JUMP JUMPDEST PUSH1 0x0 PUSH1 0xA0 DUP3 ADD SWAP1 POP PUSH2 0x166E PUSH1 0x0 DUP4 ADD DUP9 PUSH2 0x104B JUMP JUMPDEST PUSH2 0x167B PUSH1 0x20 DUP4 ADD DUP8 PUSH2 0x104B JUMP JUMPDEST PUSH2 0x1688 PUSH1 0x40 DUP4 ADD DUP7 PUSH2 0x10DE JUMP JUMPDEST DUP2 DUP2 SUB PUSH1 0x60 DUP4 ADD MSTORE PUSH2 0x169A DUP2 DUP6 PUSH2 0x1603 JUMP JUMPDEST SWAP1 POP PUSH2 0x16A9 PUSH1 0x80 DUP4 ADD DUP5 PUSH2 0x164A JUMP JUMPDEST SWAP7 SWAP6 POP POP POP POP POP POP JUMP INVALID LOG2 PUSH5 0x6970667358 0x22 SLT KECCAK256 SSTORE 0xD7 0xF9 LOG1 GAS 0xFC PUSH31 0xACE6658F772A40477B23C957834A7966371D7B4D5AE5CF259364736F6C6343 STOP ADDMOD EXP STOP CALLER "},"methodIdentifiers":{"ADDRESSES_PROVIDER()":"0542975c","DAI()":"e0bab4c4","POOL()":"7535d246","USDC()":"89a30271","WETH9()":"4aa4a4fc","executeLiquidation(address,uint256,address,address,uint256)":"3b73b6bc","executeOperation(address,uint256,uint256,address,bytes)":"1b11d0ff","getBalance(address)":"f8b2cb4f","poolFee()":"089fe6aa","withdraw(address)":"51cff8d9"}}}}}