{
  "_format": "hh-sol-artifact-1",
  "contractName": "FlashLoan",
  "sourceName": "contracts/MyFlash.sol",
  "abi": [
    {
      "inputs": [
        {
          "internalType": "address",
          "name": "_addressProvider",
          "type": "address"
        },
        {
          "internalType": "contract ISwapRouter",
          "name": "_swapRouter",
          "type": "address"
        }
      ],
      "stateMutability": "nonpayable",
      "type": "constructor"
    },
    {
      "inputs": [],
      "name": "ADDRESSES_PROVIDER",
      "outputs": [
        {
          "internalType": "contract IPoolAddressesProvider",
          "name": "",
          "type": "address"
        }
      ],
      "stateMutability": "view",
      "type": "function"
    },
    {
      "inputs": [],
      "name": "DAI",
      "outputs": [
        {
          "internalType": "address",
          "name": "",
          "type": "address"
        }
      ],
      "stateMutability": "view",
      "type": "function"
    },
    {
      "inputs": [],
      "name": "POOL",
      "outputs": [
        {
          "internalType": "contract IPool",
          "name": "",
          "type": "address"
        }
      ],
      "stateMutability": "view",
      "type": "function"
    },
    {
      "inputs": [],
      "name": "USDC",
      "outputs": [
        {
          "internalType": "address",
          "name": "",
          "type": "address"
        }
      ],
      "stateMutability": "view",
      "type": "function"
    },
    {
      "inputs": [],
      "name": "WETH9",
      "outputs": [
        {
          "internalType": "address",
          "name": "",
          "type": "address"
        }
      ],
      "stateMutability": "view",
      "type": "function"
    },
    {
      "inputs": [
        {
          "internalType": "address",
          "name": "_flashToken",
          "type": "address"
        },
        {
          "internalType": "uint256",
          "name": "flashAmount",
          "type": "uint256"
        },
        {
          "internalType": "address",
          "name": "_target",
          "type": "address"
        },
        {
          "internalType": "address",
          "name": "_targetUser",
          "type": "address"
        },
        {
          "internalType": "uint256",
          "name": "_repayAmount",
          "type": "uint256"
        }
      ],
      "name": "executeLiquidation",
      "outputs": [],
      "stateMutability": "nonpayable",
      "type": "function"
    },
    {
      "inputs": [
        {
          "internalType": "address",
          "name": "asset",
          "type": "address"
        },
        {
          "internalType": "uint256",
          "name": "amount",
          "type": "uint256"
        },
        {
          "internalType": "uint256",
          "name": "premium",
          "type": "uint256"
        },
        {
          "internalType": "address",
          "name": "initiator",
          "type": "address"
        },
        {
          "internalType": "bytes",
          "name": "params",
          "type": "bytes"
        }
      ],
      "name": "executeOperation",
      "outputs": [
        {
          "internalType": "bool",
          "name": "",
          "type": "bool"
        }
      ],
      "stateMutability": "nonpayable",
      "type": "function"
    },
    {
      "inputs": [
        {
          "internalType": "address",
          "name": "_tokenAddress",
          "type": "address"
        }
      ],
      "name": "getBalance",
      "outputs": [
        {
          "internalType": "uint256",
          "name": "",
          "type": "uint256"
        }
      ],
      "stateMutability": "view",
      "type": "function"
    },
    {
      "inputs": [],
      "name": "poolFee",
      "outputs": [
        {
          "internalType": "uint24",
          "name": "",
          "type": "uint24"
        }
      ],
      "stateMutability": "view",
      "type": "function"
    },
    {
      "inputs": [
        {
          "internalType": "address",
          "name": "_tokenAddress",
          "type": "address"
        }
      ],
      "name": "withdraw",
      "outputs": [],
      "stateMutability": "nonpayable",
      "type": "function"
    },
    {
      "stateMutability": "payable",
      "type": "receive"
    }
  ],
  "bytecode": "0x60c06040523480156200001157600080fd5b50604051620019e0380380620019e083398181016040528101906200003791906200024a565b818073ffffffffffffffffffffffffffffffffffffffff1660808173ffffffffffffffffffffffffffffffffffffffff16815250508073ffffffffffffffffffffffffffffffffffffffff1663026b1d5f6040518163ffffffff1660e01b8152600401602060405180830381865afa158015620000b8573d6000803e3d6000fd5b505050506040513d601f19601f82011682018060405250810190620000de919062000291565b73ffffffffffffffffffffffffffffffffffffffff1660a08173ffffffffffffffffffffffffffffffffffffffff168152505050336000806101000a81548173ffffffffffffffffffffffffffffffffffffffff021916908373ffffffffffffffffffffffffffffffffffffffff16021790555080600560006101000a81548173ffffffffffffffffffffffffffffffffffffffff021916908373ffffffffffffffffffffffffffffffffffffffff1602179055505050620002c3565b600080fd5b600073ffffffffffffffffffffffffffffffffffffffff82169050919050565b6000620001cd82620001a0565b9050919050565b620001df81620001c0565b8114620001eb57600080fd5b50565b600081519050620001ff81620001d4565b92915050565b60006200021282620001c0565b9050919050565b620002248162000205565b81146200023057600080fd5b50565b600081519050620002448162000219565b92915050565b600080604083850312156200026457620002636200019b565b5b60006200027485828601620001ee565b9250506020620002878582860162000233565b9150509250929050565b600060208284031215620002aa57620002a96200019b565b5b6000620002ba84828501620001ee565b91505092915050565b60805160a0516116e9620002f7600039600081816102cb015281816109070152610cb00152600061027101526116e96000f3fe6080604052600436106100955760003560e01c806351cff8d91161005957806351cff8d9146101885780637535d246146101b157806389a30271146101dc578063e0bab4c414610207578063f8b2cb4f146102325761009c565b80630542975c146100a1578063089fe6aa146100cc5780631b11d0ff146100f75780633b73b6bc146101345780634aa4a4fc1461015d5761009c565b3661009c57005b600080fd5b3480156100ad57600080fd5b506100b661026f565b6040516100c39190610dc9565b60405180910390f35b3480156100d857600080fd5b506100e1610293565b6040516100ee9190610e02565b60405180910390f35b34801561010357600080fd5b5061011e60048036038101906101199190610f00565b610299565b60405161012b9190610fb5565b60405180910390f35b34801561014057600080fd5b5061015b60048036038101906101569190610fd0565b6106c4565b005b34801561016957600080fd5b5061017261075e565b60405161017f919061105a565b60405180910390f35b34801561019457600080fd5b506101af60048036038101906101aa9190611075565b610776565b005b3480156101bd57600080fd5b506101c6610905565b6040516101d391906110c3565b60405180910390f35b3480156101e857600080fd5b506101f1610929565b6040516101fe919061105a565b60405180910390f35b34801561021357600080fd5b5061021c610941565b604051610229919061105a565b60405180910390f35b34801561023e57600080fd5b5061025960048036038101906102549190611075565b610959565b60405161026691906110ed565b60405180910390f35b7f000000000000000000000000000000000000000000000000000000000000000081565b610bb881565b60008060008087896102ab9190611137565b90508973ffffffffffffffffffffffffffffffffffffffff1663095ea7b37f0000000000000000000000000000000000000000000000000000000000000000836040518363ffffffff1660e01b815260040161030892919061118d565b6020604051808303816000875af1158015610327573d6000803e3d6000fd5b505050506040513d601f19601f8201168201806040525081019061034b91906111e2565b506000600260009054906101000a900473ffffffffffffffffffffffffffffffffffffffff1690508073ffffffffffffffffffffffffffffffffffffffff1662a718a9600260009054906101000a900473ffffffffffffffffffffffffffffffffffffffff168d600360009054906101000a900473ffffffffffffffffffffffffffffffffffffffff1660045460006040518663ffffffff1660e01b81526004016103fa95949392919061120f565b600060405180830381600087803b15801561041457600080fd5b505af1158015610428573d6000803e3d6000fd5b50505050600260009054906101000a900473ffffffffffffffffffffffffffffffffffffffff1673ffffffffffffffffffffffffffffffffffffffff1663095ea7b330866040518363ffffffff1660e01b815260040161048992919061118d565b6020604051808303816000875af11580156104a8573d6000803e3d6000fd5b505050506040513d601f19601f820116820180604052508101906104cc91906111e2565b506104fb600260009054906101000a900473ffffffffffffffffffffffffffffffffffffffff168930876109dc565b61054a600260009054906101000a900473ffffffffffffffffffffffffffffffffffffffff16600560009054906101000a900473ffffffffffffffffffffffffffffffffffffffff1686610b34565b6000604051806101000160405280736b175474e89094c44da98b954eedeac495271d0f73ffffffffffffffffffffffffffffffffffffffff16815260200173c02aaa39b223fe8d0a0e5c4f27ead9083c756cc273ffffffffffffffffffffffffffffffffffffffff168152602001610bb862ffffff1681526020013373ffffffffffffffffffffffffffffffffffffffff16815260200142815260200186815260200160008152602001600073ffffffffffffffffffffffffffffffffffffffff168152509050600560009054906101000a900473ffffffffffffffffffffffffffffffffffffffff1673ffffffffffffffffffffffffffffffffffffffff1663414bf389826040518263ffffffff1660e01b815260040161066c9190611340565b6020604051808303816000875af115801561068b573d6000803e3d6000fd5b505050506040513d601f19601f820116820180604052508101906106af9190611371565b93506001955050505050509695505050505050565b82600260006101000a81548173ffffffffffffffffffffffffffffffffffffffff021916908373ffffffffffffffffffffffffffffffffffffffff16021790555081600360006101000a81548173ffffffffffffffffffffffffffffffffffffffff021916908373ffffffffffffffffffffffffffffffffffffffff160217905550806004819055506107578585610c89565b5050505050565b73c02aaa39b223fe8d0a0e5c4f27ead9083c756cc281565b60008054906101000a900473ffffffffffffffffffffffffffffffffffffffff1673ffffffffffffffffffffffffffffffffffffffff163373ffffffffffffffffffffffffffffffffffffffff1614610804576040517f08c379a00000000000000000000000000000000000000000000000000000000081526004016107fb90611421565b60405180910390fd5b60008190508073ffffffffffffffffffffffffffffffffffffffff1663a9059cbb338373ffffffffffffffffffffffffffffffffffffffff166370a08231306040518263ffffffff1660e01b815260040161085f919061105a565b602060405180830381865afa15801561087c573d6000803e3d6000fd5b505050506040513d601f19601f820116820180604052508101906108a09190611371565b6040518363ffffffff1660e01b81526004016108bd92919061118d565b6020604051808303816000875af11580156108dc573d6000803e3d6000fd5b505050506040513d601f19601f8201168201806040525081019061090091906111e2565b505050565b7f000000000000000000000000000000000000000000000000000000000000000081565b73a0b86991c6218b36c1d19d4a2e9eb0ce3606eb4881565b736b175474e89094c44da98b954eedeac495271d0f81565b60008173ffffffffffffffffffffffffffffffffffffffff166370a08231306040518263ffffffff1660e01b8152600401610994919061105a565b602060405180830381865afa1580156109b1573d6000803e3d6000fd5b505050506040513d601f19601f820116820180604052508101906109d59190611371565b9050919050565b6000808573ffffffffffffffffffffffffffffffffffffffff166323b872dd60e01b868686604051602401610a1393929190611441565b604051602081830303815290604052907bffffffffffffffffffffffffffffffffffffffffffffffffffffffff19166020820180517bffffffffffffffffffffffffffffffffffffffffffffffffffffffff8381831617835250505050604051610a7d91906114f2565b6000604051808303816000865af19150503d8060008114610aba576040519150601f19603f3d011682016040523d82523d6000602084013e610abf565b606091505b5091509150818015610aed5750600081511480610aec575080806020019051810190610aeb91906111e2565b5b5b610b2c576040517f08c379a0000000000000000000000000000000000000000000000000000000008152600401610b2390611555565b60405180910390fd5b505050505050565b6000808473ffffffffffffffffffffffffffffffffffffffff1663095ea7b360e01b8585604051602401610b6992919061118d565b604051602081830303815290604052907bffffffffffffffffffffffffffffffffffffffffffffffffffffffff19166020820180517bffffffffffffffffffffffffffffffffffffffffffffffffffffffff8381831617835250505050604051610bd391906114f2565b6000604051808303816000865af19150503d8060008114610c10576040519150601f19603f3d011682016040523d82523d6000602084013e610c15565b606091505b5091509150818015610c435750600081511480610c42575080806020019051810190610c4191906111e2565b5b5b610c82576040517f08c379a0000000000000000000000000000000000000000000000000000000008152600401610c79906115c1565b60405180910390fd5b5050505050565b600030905060008390506000839050600060405180602001604052806000815250905060007f000000000000000000000000000000000000000000000000000000000000000073ffffffffffffffffffffffffffffffffffffffff166342b0b77c86868686866040518663ffffffff1660e01b8152600401610d0f959493929190611659565b600060405180830381600087803b158015610d2957600080fd5b505af1158015610d3d573d6000803e3d6000fd5b5050505050505050505050565b600073ffffffffffffffffffffffffffffffffffffffff82169050919050565b6000819050919050565b6000610d8f610d8a610d8584610d4a565b610d6a565b610d4a565b9050919050565b6000610da182610d74565b9050919050565b6000610db382610d96565b9050919050565b610dc381610da8565b82525050565b6000602082019050610dde6000830184610dba565b92915050565b600062ffffff82169050919050565b610dfc81610de4565b82525050565b6000602082019050610e176000830184610df3565b92915050565b600080fd5b600080fd5b6000610e3282610d4a565b9050919050565b610e4281610e27565b8114610e4d57600080fd5b50565b600081359050610e5f81610e39565b92915050565b6000819050919050565b610e7881610e65565b8114610e8357600080fd5b50565b600081359050610e9581610e6f565b92915050565b600080fd5b600080fd5b600080fd5b60008083601f840112610ec057610ebf610e9b565b5b8235905067ffffffffffffffff811115610edd57610edc610ea0565b5b602083019150836001820283011115610ef957610ef8610ea5565b5b9250929050565b60008060008060008060a08789031215610f1d57610f1c610e1d565b5b6000610f2b89828a01610e50565b9650506020610f3c89828a01610e86565b9550506040610f4d89828a01610e86565b9450506060610f5e89828a01610e50565b935050608087013567ffffffffffffffff811115610f7f57610f7e610e22565b5b610f8b89828a01610eaa565b92509250509295509295509295565b60008115159050919050565b610faf81610f9a565b82525050565b6000602082019050610fca6000830184610fa6565b92915050565b600080600080600060a08688031215610fec57610feb610e1d565b5b6000610ffa88828901610e50565b955050602061100b88828901610e86565b945050604061101c88828901610e50565b935050606061102d88828901610e50565b925050608061103e88828901610e86565b9150509295509295909350565b61105481610e27565b82525050565b600060208201905061106f600083018461104b565b92915050565b60006020828403121561108b5761108a610e1d565b5b600061109984828501610e50565b91505092915050565b60006110ad82610d96565b9050919050565b6110bd816110a2565b82525050565b60006020820190506110d860008301846110b4565b92915050565b6110e781610e65565b82525050565b600060208201905061110260008301846110de565b92915050565b7f4e487b7100000000000000000000000000000000000000000000000000000000600052601160045260246000fd5b600061114282610e65565b915061114d83610e65565b9250827fffffffffffffffffffffffffffffffffffffffffffffffffffffffffffffffff0382111561118257611181611108565b5b828201905092915050565b60006040820190506111a2600083018561104b565b6111af60208301846110de565b9392505050565b6111bf81610f9a565b81146111ca57600080fd5b50565b6000815190506111dc816111b6565b92915050565b6000602082840312156111f8576111f7610e1d565b5b6000611206848285016111cd565b91505092915050565b600060a082019050611224600083018861104b565b611231602083018761104b565b61123e604083018661104b565b61124b60608301856110de565b6112586080830184610fa6565b9695505050505050565b61126b81610e27565b82525050565b61127a81610de4565b82525050565b61128981610e65565b82525050565b61129881610d4a565b82525050565b610100820160008201516112b56000850182611262565b5060208201516112c86020850182611262565b5060408201516112db6040850182611271565b5060608201516112ee6060850182611262565b5060808201516113016080850182611280565b5060a082015161131460a0850182611280565b5060c082015161132760c0850182611280565b5060e082015161133a60e085018261128f565b50505050565b600061010082019050611356600083018461129e565b92915050565b60008151905061136b81610e6f565b92915050565b60006020828403121561138757611386610e1d565b5b60006113958482850161135c565b91505092915050565b600082825260208201905092915050565b7f4f6e6c792074686520636f6e7472616374206f776e65722063616e2063616c6c60008201527f20746869732066756e6374696f6e000000000000000000000000000000000000602082015250565b600061140b602e8361139e565b9150611416826113af565b604082019050919050565b6000602082019050818103600083015261143a816113fe565b9050919050565b6000606082019050611456600083018661104b565b611463602083018561104b565b61147060408301846110de565b949350505050565b600081519050919050565b600081905092915050565b60005b838110156114ac578082015181840152602081019050611491565b838111156114bb576000848401525b50505050565b60006114cc82611478565b6114d68185611483565b93506114e681856020860161148e565b80840191505092915050565b60006114fe82846114c1565b915081905092915050565b7f5354460000000000000000000000000000000000000000000000000000000000600082015250565b600061153f60038361139e565b915061154a82611509565b602082019050919050565b6000602082019050818103600083015261156e81611532565b9050919050565b7f5341000000000000000000000000000000000000000000000000000000000000600082015250565b60006115ab60028361139e565b91506115b682611575565b602082019050919050565b600060208201905081810360008301526115da8161159e565b9050919050565b600082825260208201905092915050565b6000601f19601f8301169050919050565b600061160e82611478565b61161881856115e1565b935061162881856020860161148e565b611631816115f2565b840191505092915050565b600061ffff82169050919050565b6116538161163c565b82525050565b600060a08201905061166e600083018861104b565b61167b602083018761104b565b61168860408301866110de565b818103606083015261169a8185611603565b90506116a9608083018461164a565b969550505050505056fea264697066735822122055d7f9a15afc7eace6658f772a40477b23c957834a7966371d7b4d5ae5cf259364736f6c634300080a0033",
  "linkReferences": {},
  "deployedLinkReferences": {}
}